{
  "contractName": "ElectionManager",
  "abi": [
    {
      "inputs": [],
      "stateMutability": "nonpayable",
      "type": "constructor"
    },
    {
      "anonymous": false,
      "inputs": [
        {
          "indexed": false,
          "internalType": "uint256",
          "name": "electionId",
          "type": "uint256"
        },
        {
          "indexed": false,
          "internalType": "address",
          "name": "candidate",
          "type": "address"
        }
      ],
      "name": "CandidateApproved",
      "type": "event"
    },
    {
      "anonymous": false,
      "inputs": [
        {
          "indexed": false,
          "internalType": "uint256",
          "name": "electionId",
          "type": "uint256"
        },
        {
          "indexed": false,
          "internalType": "address",
          "name": "candidate",
          "type": "address"
        },
        {
          "indexed": false,
          "internalType": "string",
          "name": "name",
          "type": "string"
        }
      ],
      "name": "CandidateRequested",
      "type": "event"
    },
    {
      "anonymous": false,
      "inputs": [
        {
          "indexed": false,
          "internalType": "uint256",
          "name": "electionId",
          "type": "uint256"
        },
        {
          "indexed": false,
          "internalType": "string",
          "name": "name",
          "type": "string"
        },
        {
          "indexed": false,
          "internalType": "string",
          "name": "position",
          "type": "string"
        }
      ],
      "name": "ElectionCreated",
      "type": "event"
    },
    {
      "anonymous": false,
      "inputs": [
        {
          "indexed": false,
          "internalType": "uint256",
          "name": "electionId",
          "type": "uint256"
        },
        {
          "indexed": false,
          "internalType": "address",
          "name": "voter",
          "type": "address"
        }
      ],
      "name": "TokenIssued",
      "type": "event"
    },
    {
      "anonymous": false,
      "inputs": [
        {
          "indexed": false,
          "internalType": "uint256",
          "name": "electionId",
          "type": "uint256"
        },
        {
          "indexed": true,
          "internalType": "address",
          "name": "voter",
          "type": "address"
        },
        {
          "indexed": false,
          "internalType": "string",
          "name": "candidate",
          "type": "string"
        }
      ],
      "name": "Voted",
      "type": "event"
    },
    {
      "anonymous": false,
      "inputs": [
        {
          "indexed": false,
          "internalType": "uint256",
          "name": "electionId",
          "type": "uint256"
        }
      ],
      "name": "VotingClosed",
      "type": "event"
    },
    {
      "inputs": [],
      "name": "admin",
      "outputs": [
        {
          "internalType": "address",
          "name": "",
          "type": "address"
        }
      ],
      "stateMutability": "view",
      "type": "function",
      "constant": true
    },
    {
      "inputs": [],
      "name": "electionCount",
      "outputs": [
        {
          "internalType": "uint256",
          "name": "",
          "type": "uint256"
        }
      ],
      "stateMutability": "view",
      "type": "function",
      "constant": true
    },
    {
      "inputs": [
        {
          "internalType": "address",
          "name": "",
          "type": "address"
        },
        {
          "internalType": "uint256",
          "name": "",
          "type": "uint256"
        }
      ],
      "name": "tokenIssued",
      "outputs": [
        {
          "internalType": "bool",
          "name": "",
          "type": "bool"
        }
      ],
      "stateMutability": "view",
      "type": "function",
      "constant": true
    },
    {
      "inputs": [
        {
          "internalType": "string",
          "name": "_name",
          "type": "string"
        },
        {
          "internalType": "string",
          "name": "_position",
          "type": "string"
        },
        {
          "internalType": "uint256",
          "name": "_candidateDeadline",
          "type": "uint256"
        },
        {
          "internalType": "uint256",
          "name": "_startTime",
          "type": "uint256"
        },
        {
          "internalType": "uint256",
          "name": "_endTime",
          "type": "uint256"
        }
      ],
      "name": "createElection",
      "outputs": [],
      "stateMutability": "nonpayable",
      "type": "function"
    },
    {
      "inputs": [
        {
          "internalType": "uint256",
          "name": "_electionId",
          "type": "uint256"
        },
        {
          "internalType": "string",
          "name": "_name",
          "type": "string"
        }
      ],
      "name": "requestCandidacy",
      "outputs": [],
      "stateMutability": "nonpayable",
      "type": "function"
    },
    {
      "inputs": [
        {
          "internalType": "uint256",
          "name": "_electionId",
          "type": "uint256"
        },
        {
          "internalType": "address",
          "name": "_candidate",
          "type": "address"
        }
      ],
      "name": "approveCandidate",
      "outputs": [],
      "stateMutability": "nonpayable",
      "type": "function"
    },
    {
      "inputs": [
        {
          "internalType": "uint256",
          "name": "_electionId",
          "type": "uint256"
        },
        {
          "internalType": "address",
          "name": "_candidate",
          "type": "address"
        }
      ],
      "name": "vote",
      "outputs": [],
      "stateMutability": "nonpayable",
      "type": "function"
    },
    {
      "inputs": [
        {
          "internalType": "uint256",
          "name": "_electionId",
          "type": "uint256"
        }
      ],
      "name": "closeVoting",
      "outputs": [],
      "stateMutability": "nonpayable",
      "type": "function"
    },
    {
      "inputs": [
        {
          "internalType": "uint256",
          "name": "_electionId",
          "type": "uint256"
        }
      ],
      "name": "getCandidates",
      "outputs": [
        {
          "internalType": "string[]",
          "name": "",
          "type": "string[]"
        }
      ],
      "stateMutability": "view",
      "type": "function",
      "constant": true
    },
    {
      "inputs": [
        {
          "internalType": "uint256",
          "name": "_electionId",
          "type": "uint256"
        },
        {
          "internalType": "string",
          "name": "_candidateName",
          "type": "string"
        }
      ],
      "name": "getVotes",
      "outputs": [
        {
          "internalType": "uint256",
          "name": "",
          "type": "uint256"
        }
      ],
      "stateMutability": "view",
      "type": "function",
      "constant": true
    },
    {
      "inputs": [
        {
          "internalType": "uint256",
          "name": "_electionId",
          "type": "uint256"
        },
        {
          "internalType": "address",
          "name": "_voter",
          "type": "address"
        }
      ],
      "name": "hasVoted",
      "outputs": [
        {
          "internalType": "bool",
          "name": "",
          "type": "bool"
        }
      ],
      "stateMutability": "view",
      "type": "function",
      "constant": true
    },
    {
      "inputs": [
        {
          "internalType": "uint256",
          "name": "_electionId",
          "type": "uint256"
        }
      ],
      "name": "getElectionDetails",
      "outputs": [
        {
          "internalType": "string",
          "name": "name",
          "type": "string"
        },
        {
          "internalType": "string",
          "name": "position",
          "type": "string"
        },
        {
          "internalType": "uint256",
          "name": "candidateDeadline",
          "type": "uint256"
        },
        {
          "internalType": "uint256",
          "name": "startTime",
          "type": "uint256"
        },
        {
          "internalType": "uint256",
          "name": "endTime",
          "type": "uint256"
        },
        {
          "internalType": "bool",
          "name": "votingClosed",
          "type": "bool"
        }
      ],
      "stateMutability": "view",
      "type": "function",
      "constant": true
    },
    {
      "inputs": [],
      "name": "getAllElections",
      "outputs": [
        {
          "internalType": "uint256[]",
          "name": "ids",
          "type": "uint256[]"
        },
        {
          "internalType": "string[]",
          "name": "names",
          "type": "string[]"
        },
        {
          "internalType": "string[]",
          "name": "positions",
          "type": "string[]"
        },
        {
          "internalType": "uint256[]",
          "name": "candidateDeadlines",
          "type": "uint256[]"
        },
        {
          "internalType": "uint256[]",
          "name": "startTimes",
          "type": "uint256[]"
        },
        {
          "internalType": "uint256[]",
          "name": "endTimes",
          "type": "uint256[]"
        },
        {
          "internalType": "bool[]",
          "name": "votingClosedFlags",
          "type": "bool[]"
        },
        {
          "internalType": "string[][]",
          "name": "candidateNames",
          "type": "string[][]"
        },
        {
          "internalType": "bool[][]",
          "name": "candidateApprovals",
          "type": "bool[][]"
        },
        {
          "internalType": "address[][]",
          "name": "candidateAddresses",
          "type": "address[][]"
        }
      ],
      "stateMutability": "view",
      "type": "function",
      "constant": true
    }
  ],
  "bytecode": "0x608060405234801561000f575f80fd5b50335f806101000a81548173ffffffffffffffffffffffffffffffffffffffff021916908373ffffffffffffffffffffffffffffffffffffffff1602179055506135778061005c5f395ff3fe608060405234801561000f575f80fd5b50600436106100cd575f3560e01c8063d2111a721161008a578063f851a44011610064578063f851a44014610243578063fb7b0a1214610261578063fc7d678c1461027d578063ff50e12f14610299576100cd565b8063d2111a72146101c2578063e76d28ad146101de578063f60499241461020e576100cd565b806302d947ef146100d15780633e39a7a5146100ed57806342163b901461011d578063438596321461014d5780637fd5f2681461017d578063997d2830146101a4575b5f80fd5b6100eb60048036038101906100e69190611ef8565b6102b5565b005b61010760048036038101906101029190611f36565b610674565b60405161011491906120a6565b60405180910390f35b610137600480360381019061013291906120c6565b6109f4565b604051610144919061211e565b60405180910390f35b61016760048036038101906101629190611ef8565b610a1e565b604051610174919061211e565b60405180910390f35b610185610ae3565b60405161019b9a9998979695949392919061267c565b60405180910390f35b6101ac6113fe565b6040516101b9919061276b565b60405180910390f35b6101dc60048036038101906101d79190611f36565b611404565b005b6101f860048036038101906101f391906128b0565b611557565b604051610205919061276b565b60405180910390f35b61022860048036038101906102239190611f36565b6115f1565b60405161023a96959493929190612952565b60405180910390f35b61024b6117be565b60405161025891906129ce565b60405180910390f35b61027b60048036038101906102769190611ef8565b6117e1565b005b610297600480360381019061029291906128b0565b6119f9565b005b6102b360048036038101906102ae91906129e7565b611c61565b005b5f60015f8481526020019081526020015f209050806005015f9054906101000a900460ff16610319576040517f08c379a000000000000000000000000000000000000000000000000000000000815260040161031090612ae0565b60405180910390fd5b8060020154421015610360576040517f08c379a000000000000000000000000000000000000000000000000000000000815260040161035790612b48565b60405180910390fd5b80600301544211156103a7576040517f08c379a000000000000000000000000000000000000000000000000000000000815260040161039e90612bb0565b60405180910390fd5b8060050160019054906101000a900460ff16156103f9576040517f08c379a00000000000000000000000000000000000000000000000000000000081526004016103f090612c18565b60405180910390fd5b806006015f3373ffffffffffffffffffffffffffffffffffffffff1673ffffffffffffffffffffffffffffffffffffffff1681526020019081526020015f205f9054906101000a900460ff1615610485576040517f08c379a000000000000000000000000000000000000000000000000000000000815260040161047c90612c80565b60405180910390fd5b806009015f8373ffffffffffffffffffffffffffffffffffffffff1673ffffffffffffffffffffffffffffffffffffffff1681526020019081526020015f206001015f9054906101000a900460ff16610513576040517f08c379a000000000000000000000000000000000000000000000000000000000815260040161050a90612ce8565b60405180910390fd5b80600701816009015f8473ffffffffffffffffffffffffffffffffffffffff1673ffffffffffffffffffffffffffffffffffffffff1681526020019081526020015f205f016040516105659190612dff565b90815260200160405180910390205f81548092919061058390612e42565b91905055506001816006015f3373ffffffffffffffffffffffffffffffffffffffff1673ffffffffffffffffffffffffffffffffffffffff1681526020019081526020015f205f6101000a81548160ff0219169083151502179055503373ffffffffffffffffffffffffffffffffffffffff167f909b43dcc56d91024768bbc5c8d56441234580b2fd6176844960cbc7218cc0b584836009015f8673ffffffffffffffffffffffffffffffffffffffff1673ffffffffffffffffffffffffffffffffffffffff1681526020019081526020015f205f01604051610667929190612f0a565b60405180910390a2505050565b606060015f8381526020019081526020015f206005015f9054906101000a900460ff166106d6576040517f08c379a00000000000000000000000000000000000000000000000000000000081526004016106cd90612ae0565b60405180910390fd5b5f60015f8481526020019081526020015f2090505f805b82600801805490508110156107af57826009015f84600801838154811061071757610716612f38565b5b905f5260205f20015f9054906101000a900473ffffffffffffffffffffffffffffffffffffffff1673ffffffffffffffffffffffffffffffffffffffff1673ffffffffffffffffffffffffffffffffffffffff1681526020019081526020015f206001015f9054906101000a900460ff161561079c57818061079890612e42565b9250505b80806107a790612e42565b9150506106ed565b505f8167ffffffffffffffff8111156107cb576107ca61278c565b5b6040519080825280602002602001820160405280156107fe57816020015b60608152602001906001900390816107e95790505b5090505f805b84600801805490508110156109e757846009015f86600801838154811061082e5761082d612f38565b5b905f5260205f20015f9054906101000a900473ffffffffffffffffffffffffffffffffffffffff1673ffffffffffffffffffffffffffffffffffffffff1673ffffffffffffffffffffffffffffffffffffffff1681526020019081526020015f206001015f9054906101000a900460ff16156109d457846009015f8660080183815481106108bf576108be612f38565b5b905f5260205f20015f9054906101000a900473ffffffffffffffffffffffffffffffffffffffff1673ffffffffffffffffffffffffffffffffffffffff1673ffffffffffffffffffffffffffffffffffffffff1681526020019081526020015f205f01805461092d90612d33565b80601f016020809104026020016040519081016040528092919081815260200182805461095990612d33565b80156109a45780601f1061097b576101008083540402835291602001916109a4565b820191905f5260205f20905b81548152906001019060200180831161098757829003601f168201915b50505050508383806109b590612e42565b9450815181106109c8576109c7612f38565b5b60200260200101819052505b80806109df90612e42565b915050610804565b5081945050505050919050565b6002602052815f5260405f20602052805f5260405f205f915091509054906101000a900460ff1681565b5f60015f8481526020019081526020015f206005015f9054906101000a900460ff16610a7f576040517f08c379a0000000000000000000000000000000000000000000000000000000008152600401610a7690612ae0565b60405180910390fd5b60015f8481526020019081526020015f206006015f8373ffffffffffffffffffffffffffffffffffffffff1673ffffffffffffffffffffffffffffffffffffffff1681526020019081526020015f205f9054906101000a900460ff16905092915050565b6060806060806060806060806060805f60035490505f80600190505b828111610b4e5760015f8281526020019081526020015f206005015f9054906101000a900460ff1615610b3b578180610b3790612e42565b9250505b8080610b4690612e42565b915050610aff565b508067ffffffffffffffff811115610b6957610b6861278c565b5b604051908082528060200260200182016040528015610b975781602001602082028036833780820191505090505b509b508067ffffffffffffffff811115610bb457610bb361278c565b5b604051908082528060200260200182016040528015610be757816020015b6060815260200190600190039081610bd25790505b509a508067ffffffffffffffff811115610c0457610c0361278c565b5b604051908082528060200260200182016040528015610c3757816020015b6060815260200190600190039081610c225790505b5099508067ffffffffffffffff811115610c5457610c5361278c565b5b604051908082528060200260200182016040528015610c825781602001602082028036833780820191505090505b5098508067ffffffffffffffff811115610c9f57610c9e61278c565b5b604051908082528060200260200182016040528015610ccd5781602001602082028036833780820191505090505b5097508067ffffffffffffffff811115610cea57610ce961278c565b5b604051908082528060200260200182016040528015610d185781602001602082028036833780820191505090505b5096508067ffffffffffffffff811115610d3557610d3461278c565b5b604051908082528060200260200182016040528015610d635781602001602082028036833780820191505090505b5095508067ffffffffffffffff811115610d8057610d7f61278c565b5b604051908082528060200260200182016040528015610db357816020015b6060815260200190600190039081610d9e5790505b5094508067ffffffffffffffff811115610dd057610dcf61278c565b5b604051908082528060200260200182016040528015610e0357816020015b6060815260200190600190039081610dee5790505b5093508067ffffffffffffffff811115610e2057610e1f61278c565b5b604051908082528060200260200182016040528015610e5357816020015b6060815260200190600190039081610e3e5790505b5092505f80600190505b8381116113ee575f60015f8381526020019081526020015f209050806005015f9054906101000a900460ff16610e9357506113db565b818f8481518110610ea757610ea6612f38565b5b602002602001018181525050805f018054610ec190612d33565b80601f0160208091040260200160405190810160405280929190818152602001828054610eed90612d33565b8015610f385780601f10610f0f57610100808354040283529160200191610f38565b820191905f5260205f20905b815481529060010190602001808311610f1b57829003601f168201915b50505050508e8481518110610f5057610f4f612f38565b5b6020026020010181905250806001018054610f6a90612d33565b80601f0160208091040260200160405190810160405280929190818152602001828054610f9690612d33565b8015610fe15780601f10610fb857610100808354040283529160200191610fe1565b820191905f5260205f20905b815481529060010190602001808311610fc457829003601f168201915b50505050508d8481518110610ff957610ff8612f38565b5b602002602001018190525080600401548c848151811061101c5761101b612f38565b5b60200260200101818152505080600201548b84815181106110405761103f612f38565b5b60200260200101818152505080600301548a848151811061106457611063612f38565b5b6020026020010181815250508060050160019054906101000a900460ff1689848151811061109557611094612f38565b5b6020026020010190151590811515815250505f816008018054905090505f8167ffffffffffffffff8111156110cd576110cc61278c565b5b60405190808252806020026020018201604052801561110057816020015b60608152602001906001900390816110eb5790505b5090505f8267ffffffffffffffff81111561111e5761111d61278c565b5b60405190808252806020026020018201604052801561114c5781602001602082028036833780820191505090505b5090505f8367ffffffffffffffff81111561116a5761116961278c565b5b6040519080825280602002602001820160405280156111985781602001602082028036833780820191505090505b5090505f5b84811015611369575f8660080182815481106111bc576111bb612f38565b5b905f5260205f20015f9054906101000a900473ffffffffffffffffffffffffffffffffffffffff1690505f876009015f8373ffffffffffffffffffffffffffffffffffffffff1673ffffffffffffffffffffffffffffffffffffffff1681526020019081526020015f209050805f01805461123690612d33565b80601f016020809104026020016040519081016040528092919081815260200182805461126290612d33565b80156112ad5780601f10611284576101008083540402835291602001916112ad565b820191905f5260205f20905b81548152906001019060200180831161129057829003601f168201915b50505050508684815181106112c5576112c4612f38565b5b6020026020010181905250806001015f9054906101000a900460ff168584815181106112f4576112f3612f38565b5b6020026020010190151590811515815250508184848151811061131a57611319612f38565b5b602002602001019073ffffffffffffffffffffffffffffffffffffffff16908173ffffffffffffffffffffffffffffffffffffffff16815250505050808061136190612e42565b91505061119d565b50828c888151811061137e5761137d612f38565b5b6020026020010181905250818b888151811061139d5761139c612f38565b5b6020026020010181905250808a88815181106113bc576113bb612f38565b5b602002602001018190525086806113d290612e42565b97505050505050505b80806113e690612e42565b915050610e5d565b5050505090919293949596979899565b60035481565b5f8054906101000a900473ffffffffffffffffffffffffffffffffffffffff1673ffffffffffffffffffffffffffffffffffffffff163373ffffffffffffffffffffffffffffffffffffffff1614611491576040517f08c379a000000000000000000000000000000000000000000000000000000000815260040161148890612faf565b60405180910390fd5b60015f8281526020019081526020015f206005015f9054906101000a900460ff166114f1576040517f08c379a00000000000000000000000000000000000000000000000000000000081526004016114e890612ae0565b60405180910390fd5b6001805f8381526020019081526020015f2060050160016101000a81548160ff0219169083151502179055507f8e9b46a70b3967bc9ea56ca61732c363a191fac88ae3ba011f4e030711c901178160405161154c919061276b565b60405180910390a150565b5f60015f8481526020019081526020015f206005015f9054906101000a900460ff166115b8576040517f08c379a00000000000000000000000000000000000000000000000000000000081526004016115af90612ae0565b60405180910390fd5b60015f8481526020019081526020015f20600701826040516115da9190612ffd565b908152602001604051809103902054905092915050565b6060805f805f8060015f8881526020019081526020015f206005015f9054906101000a900460ff16611658576040517f08c379a000000000000000000000000000000000000000000000000000000000815260040161164f90612ae0565b60405180910390fd5b5f60015f8981526020019081526020015f209050805f01816001018260040154836002015484600301548560050160019054906101000a900460ff168580546116a090612d33565b80601f01602080910402602001604051908101604052809291908181526020018280546116cc90612d33565b80156117175780601f106116ee57610100808354040283529160200191611717565b820191905f5260205f20905b8154815290600101906020018083116116fa57829003601f168201915b5050505050955084805461172a90612d33565b80601f016020809104026020016040519081016040528092919081815260200182805461175690612d33565b80156117a15780601f10611778576101008083540402835291602001916117a1565b820191905f5260205f20905b81548152906001019060200180831161178457829003601f168201915b505050505094509650965096509650965096505091939550919395565b5f8054906101000a900473ffffffffffffffffffffffffffffffffffffffff1681565b5f8054906101000a900473ffffffffffffffffffffffffffffffffffffffff1673ffffffffffffffffffffffffffffffffffffffff163373ffffffffffffffffffffffffffffffffffffffff161461186e576040517f08c379a000000000000000000000000000000000000000000000000000000000815260040161186590612faf565b60405180910390fd5b5f60015f8481526020019081526020015f209050806005015f9054906101000a900460ff166118d2576040517f08c379a00000000000000000000000000000000000000000000000000000000081526004016118c990612ae0565b60405180910390fd5b5f816009015f8473ffffffffffffffffffffffffffffffffffffffff1673ffffffffffffffffffffffffffffffffffffffff1681526020019081526020015f205f01805461191f90612d33565b905011611961576040517f08c379a00000000000000000000000000000000000000000000000000000000081526004016119589061305d565b60405180910390fd5b6001816009015f8473ffffffffffffffffffffffffffffffffffffffff1673ffffffffffffffffffffffffffffffffffffffff1681526020019081526020015f206001015f6101000a81548160ff0219169083151502179055507f13aef0a9272508cfb79e6c2d17afc380435ff7d055828a7fadf565203207ecdd83836040516119ec92919061307b565b60405180910390a1505050565b5f60015f8481526020019081526020015f209050806005015f9054906101000a900460ff16611a5d576040517f08c379a0000000000000000000000000000000000000000000000000000000008152600401611a5490612ae0565b60405180910390fd5b8060040154421115611aa4576040517f08c379a0000000000000000000000000000000000000000000000000000000008152600401611a9b906130ec565b60405180910390fd5b5f816009015f3373ffffffffffffffffffffffffffffffffffffffff1673ffffffffffffffffffffffffffffffffffffffff1681526020019081526020015f205f018054611af190612d33565b905014611b33576040517f08c379a0000000000000000000000000000000000000000000000000000000008152600401611b2a90613154565b60405180910390fd5b60405180604001604052808381526020015f1515815250816009015f3373ffffffffffffffffffffffffffffffffffffffff1673ffffffffffffffffffffffffffffffffffffffff1681526020019081526020015f205f820151815f019081611b9c91906132fd565b506020820151816001015f6101000a81548160ff0219169083151502179055509050508060080133908060018154018082558091505060019003905f5260205f20015f9091909190916101000a81548173ffffffffffffffffffffffffffffffffffffffff021916908373ffffffffffffffffffffffffffffffffffffffff1602179055507f97d027153627019e91e0d4dcde36109aa77d2661a062d08a743f8f09fa9e7717833384604051611c54939291906133cc565b60405180910390a1505050565b5f8054906101000a900473ffffffffffffffffffffffffffffffffffffffff1673ffffffffffffffffffffffffffffffffffffffff163373ffffffffffffffffffffffffffffffffffffffff1614611cee576040517f08c379a0000000000000000000000000000000000000000000000000000000008152600401611ce590612faf565b60405180910390fd5b818310611d30576040517f08c379a0000000000000000000000000000000000000000000000000000000008152600401611d2790613478565b60405180910390fd5b808210611d72576040517f08c379a0000000000000000000000000000000000000000000000000000000008152600401611d69906134e0565b60405180910390fd5b60035f815480929190611d8490612e42565b91905055505f60015f60035481526020019081526020015f20905085815f019081611daf91906132fd565b5084816001019081611dc191906132fd565b508381600401819055508281600201819055508181600301819055506001816005015f6101000a81548160ff0219169083151502179055505f8160050160016101000a81548160ff0219169083151502179055507feaf9c9dabc2a68b717e3095068d04a84ecace13a1ab18b4499a913c3ab3d28696003548787604051611e4a939291906134fe565b60405180910390a1505050505050565b5f604051905090565b5f80fd5b5f80fd5b5f819050919050565b611e7d81611e6b565b8114611e87575f80fd5b50565b5f81359050611e9881611e74565b92915050565b5f73ffffffffffffffffffffffffffffffffffffffff82169050919050565b5f611ec782611e9e565b9050919050565b611ed781611ebd565b8114611ee1575f80fd5b50565b5f81359050611ef281611ece565b92915050565b5f8060408385031215611f0e57611f0d611e63565b5b5f611f1b85828601611e8a565b9250506020611f2c85828601611ee4565b9150509250929050565b5f60208284031215611f4b57611f4a611e63565b5b5f611f5884828501611e8a565b91505092915050565b5f81519050919050565b5f82825260208201905092915050565b5f819050602082019050919050565b5f81519050919050565b5f82825260208201905092915050565b5f5b83811015611fc1578082015181840152602081019050611fa6565b5f8484015250505050565b5f601f19601f8301169050919050565b5f611fe682611f8a565b611ff08185611f94565b9350612000818560208601611fa4565b61200981611fcc565b840191505092915050565b5f61201f8383611fdc565b905092915050565b5f602082019050919050565b5f61203d82611f61565b6120478185611f6b565b93508360208202850161205985611f7b565b805f5b8581101561209457848403895281516120758582612014565b945061208083612027565b925060208a0199505060018101905061205c565b50829750879550505050505092915050565b5f6020820190508181035f8301526120be8184612033565b905092915050565b5f80604083850312156120dc576120db611e63565b5b5f6120e985828601611ee4565b92505060206120fa85828601611e8a565b9150509250929050565b5f8115159050919050565b61211881612104565b82525050565b5f6020820190506121315f83018461210f565b92915050565b5f81519050919050565b5f82825260208201905092915050565b5f819050602082019050919050565b61216981611e6b565b82525050565b5f61217a8383612160565b60208301905092915050565b5f602082019050919050565b5f61219c82612137565b6121a68185612141565b93506121b183612151565b805f5b838110156121e15781516121c8888261216f565b97506121d383612186565b9250506001810190506121b4565b5085935050505092915050565b5f81519050919050565b5f82825260208201905092915050565b5f819050602082019050919050565b61222081612104565b82525050565b5f6122318383612217565b60208301905092915050565b5f602082019050919050565b5f612253826121ee565b61225d81856121f8565b935061226883612208565b805f5b8381101561229857815161227f8882612226565b975061228a8361223d565b92505060018101905061226b565b5085935050505092915050565b5f81519050919050565b5f82825260208201905092915050565b5f819050602082019050919050565b5f82825260208201905092915050565b5f6122e882611f61565b6122f281856122ce565b93508360208202850161230485611f7b565b805f5b8581101561233f57848403895281516123208582612014565b945061232b83612027565b925060208a01995050600181019050612307565b50829750879550505050505092915050565b5f61235c83836122de565b905092915050565b5f602082019050919050565b5f61237a826122a5565b61238481856122af565b935083602082028501612396856122bf565b805f5b858110156123d157848403895281516123b28582612351565b94506123bd83612364565b925060208a01995050600181019050612399565b50829750879550505050505092915050565b5f81519050919050565b5f82825260208201905092915050565b5f819050602082019050919050565b5f82825260208201905092915050565b5f612426826121ee565b612430818561240c565b935061243b83612208565b805f5b8381101561246b5781516124528882612226565b975061245d8361223d565b92505060018101905061243e565b5085935050505092915050565b5f612483838361241c565b905092915050565b5f602082019050919050565b5f6124a1826123e3565b6124ab81856123ed565b9350836020820285016124bd856123fd565b805f5b858110156124f857848403895281516124d98582612478565b94506124e48361248b565b925060208a019950506001810190506124c0565b50829750879550505050505092915050565b5f81519050919050565b5f82825260208201905092915050565b5f819050602082019050919050565b5f81519050919050565b5f82825260208201905092915050565b5f819050602082019050919050565b61256581611ebd565b82525050565b5f612576838361255c565b60208301905092915050565b5f602082019050919050565b5f61259882612533565b6125a2818561253d565b93506125ad8361254d565b805f5b838110156125dd5781516125c4888261256b565b97506125cf83612582565b9250506001810190506125b0565b5085935050505092915050565b5f6125f5838361258e565b905092915050565b5f602082019050919050565b5f6126138261250a565b61261d8185612514565b93508360208202850161262f85612524565b805f5b8581101561266a578484038952815161264b85826125ea565b9450612656836125fd565b925060208a01995050600181019050612632565b50829750879550505050505092915050565b5f610140820190508181035f830152612695818d612192565b905081810360208301526126a9818c612033565b905081810360408301526126bd818b612033565b905081810360608301526126d1818a612192565b905081810360808301526126e58189612192565b905081810360a08301526126f98188612192565b905081810360c083015261270d8187612249565b905081810360e08301526127218186612370565b90508181036101008301526127368185612497565b905081810361012083015261274b8184612609565b90509b9a5050505050505050505050565b61276581611e6b565b82525050565b5f60208201905061277e5f83018461275c565b92915050565b5f80fd5b5f80fd5b7f4e487b71000000000000000000000000000000000000000000000000000000005f52604160045260245ffd5b6127c282611fcc565b810181811067ffffffffffffffff821117156127e1576127e061278c565b5b80604052505050565b5f6127f3611e5a565b90506127ff82826127b9565b919050565b5f67ffffffffffffffff82111561281e5761281d61278c565b5b61282782611fcc565b9050602081019050919050565b828183375f83830152505050565b5f61285461284f84612804565b6127ea565b9050828152602081018484840111156128705761286f612788565b5b61287b848285612834565b509392505050565b5f82601f83011261289757612896612784565b5b81356128a7848260208601612842565b91505092915050565b5f80604083850312156128c6576128c5611e63565b5b5f6128d385828601611e8a565b925050602083013567ffffffffffffffff8111156128f4576128f3611e67565b5b61290085828601612883565b9150509250929050565b5f82825260208201905092915050565b5f61292482611f8a565b61292e818561290a565b935061293e818560208601611fa4565b61294781611fcc565b840191505092915050565b5f60c0820190508181035f83015261296a818961291a565b9050818103602083015261297e818861291a565b905061298d604083018761275c565b61299a606083018661275c565b6129a7608083018561275c565b6129b460a083018461210f565b979650505050505050565b6129c881611ebd565b82525050565b5f6020820190506129e15f8301846129bf565b92915050565b5f805f805f60a08688031215612a00576129ff611e63565b5b5f86013567ffffffffffffffff811115612a1d57612a1c611e67565b5b612a2988828901612883565b955050602086013567ffffffffffffffff811115612a4a57612a49611e67565b5b612a5688828901612883565b9450506040612a6788828901611e8a565b9350506060612a7888828901611e8a565b9250506080612a8988828901611e8a565b9150509295509295909350565b7f456c656374696f6e20646f6573206e6f742065786973740000000000000000005f82015250565b5f612aca60178361290a565b9150612ad582612a96565b602082019050919050565b5f6020820190508181035f830152612af781612abe565b9050919050565b7f566f74696e67206e6f74207374617274656400000000000000000000000000005f82015250565b5f612b3260128361290a565b9150612b3d82612afe565b602082019050919050565b5f6020820190508181035f830152612b5f81612b26565b9050919050565b7f566f74696e6720656e64656400000000000000000000000000000000000000005f82015250565b5f612b9a600c8361290a565b9150612ba582612b66565b602082019050919050565b5f6020820190508181035f830152612bc781612b8e565b9050919050565b7f566f74696e6720636c6f736564206d616e75616c6c79000000000000000000005f82015250565b5f612c0260168361290a565b9150612c0d82612bce565b602082019050919050565b5f6020820190508181035f830152612c2f81612bf6565b9050919050565b7f416c726561647920766f746564000000000000000000000000000000000000005f82015250565b5f612c6a600d8361290a565b9150612c7582612c36565b602082019050919050565b5f6020820190508181035f830152612c9781612c5e565b9050919050565b7f43616e646964617465206e6f7420617070726f766564000000000000000000005f82015250565b5f612cd260168361290a565b9150612cdd82612c9e565b602082019050919050565b5f6020820190508181035f830152612cff81612cc6565b9050919050565b7f4e487b71000000000000000000000000000000000000000000000000000000005f52602260045260245ffd5b5f6002820490506001821680612d4a57607f821691505b602082108103612d5d57612d5c612d06565b5b50919050565b5f81905092915050565b5f819050815f5260205f209050919050565b5f8154612d8b81612d33565b612d958186612d63565b9450600182165f8114612daf5760018114612dc457612df6565b60ff1983168652811515820286019350612df6565b612dcd85612d6d565b5f5b83811015612dee57815481890152600182019150602081019050612dcf565b838801955050505b50505092915050565b5f612e0a8284612d7f565b915081905092915050565b7f4e487b71000000000000000000000000000000000000000000000000000000005f52601160045260245ffd5b5f612e4c82611e6b565b91507fffffffffffffffffffffffffffffffffffffffffffffffffffffffffffffffff8203612e7e57612e7d612e15565b5b600182019050919050565b5f8154612e9581612d33565b612e9f818661290a565b9450600182165f8114612eb95760018114612ecf57612f01565b60ff198316865281151560200286019350612f01565b612ed885612d6d565b5f5b83811015612ef957815481890152600182019150602081019050612eda565b808801955050505b50505092915050565b5f604082019050612f1d5f83018561275c565b8181036020830152612f2f8184612e89565b90509392505050565b7f4e487b71000000000000000000000000000000000000000000000000000000005f52603260045260245ffd5b7f4f6e6c792061646d696e000000000000000000000000000000000000000000005f82015250565b5f612f99600a8361290a565b9150612fa482612f65565b602082019050919050565b5f6020820190508181035f830152612fc681612f8d565b9050919050565b5f612fd782611f8a565b612fe18185612d63565b9350612ff1818560208601611fa4565b80840191505092915050565b5f6130088284612fcd565b915081905092915050565b7f43616e646964617465206e6f7420666f756e64000000000000000000000000005f82015250565b5f61304760138361290a565b915061305282613013565b602082019050919050565b5f6020820190508181035f8301526130748161303b565b9050919050565b5f60408201905061308e5f83018561275c565b61309b60208301846129bf565b9392505050565b7f43616e64696461746520726567697374726174696f6e20636c6f7365640000005f82015250565b5f6130d6601d8361290a565b91506130e1826130a2565b602082019050919050565b5f6020820190508181035f830152613103816130ca565b9050919050565b7f416c7265616479207265717565737465640000000000000000000000000000005f82015250565b5f61313e60118361290a565b91506131498261310a565b602082019050919050565b5f6020820190508181035f83015261316b81613132565b9050919050565b5f6020601f8301049050919050565b5f82821b905092915050565b5f600883026131bc7fffffffffffffffffffffffffffffffffffffffffffffffffffffffffffffffff82613181565b6131c68683613181565b95508019841693508086168417925050509392505050565b5f819050919050565b5f6132016131fc6131f784611e6b565b6131de565b611e6b565b9050919050565b5f819050919050565b61321a836131e7565b61322e61322682613208565b84845461318d565b825550505050565b5f90565b613242613236565b61324d818484613211565b505050565b5b81811015613270576132655f8261323a565b600181019050613253565b5050565b601f8211156132b55761328681612d6d565b61328f84613172565b8101602085101561329e578190505b6132b26132aa85613172565b830182613252565b50505b505050565b5f82821c905092915050565b5f6132d55f19846008026132ba565b1980831691505092915050565b5f6132ed83836132c6565b9150826002028217905092915050565b61330682611f8a565b67ffffffffffffffff81111561331f5761331e61278c565b5b6133298254612d33565b613334828285613274565b5f60209050601f831160018114613365575f8415613353578287015190505b61335d85826132e2565b8655506133c4565b601f19841661337386612d6d565b5f5b8281101561339a57848901518255600182019150602085019450602081019050613375565b868310156133b757848901516133b3601f8916826132c6565b8355505b6001600288020188555050505b505050505050565b5f6060820190506133df5f83018661275c565b6133ec60208301856129bf565b81810360408301526133fe818461291a565b9050949350505050565b7f43616e64696461746520646561646c696e65206d757374206265206265666f725f8201527f6520766f74696e67207374617274730000000000000000000000000000000000602082015250565b5f613462602f8361290a565b915061346d82613408565b604082019050919050565b5f6020820190508181035f83015261348f81613456565b9050919050565b7f496e76616c69642074696d652072616e676500000000000000000000000000005f82015250565b5f6134ca60128361290a565b91506134d582613496565b602082019050919050565b5f6020820190508181035f8301526134f7816134be565b9050919050565b5f6060820190506135115f83018661275c565b8181036020830152613523818561291a565b90508181036040830152613537818461291a565b905094935050505056fea264697066735822122097dc3e84f1b1462b127b46e530a3efc789227c770bb8cb06f28b36688017e27964736f6c63430008150033",
  "immutableReferences": {},
  "source": "// SPDX-License-Identifier: MIT\r\npragma solidity ^0.8.19;\r\n\r\ncontract ElectionManager {\r\n    address public admin;\r\n\r\n    struct Candidate {\r\n        string name;\r\n        bool approved;\r\n    }\r\n\r\n    struct Election {\r\n        string name;\r\n        string position;\r\n        uint256 startTime;\r\n        uint256 endTime;\r\n        uint256 candidateDeadline;\r\n        bool exists;\r\n        bool votingClosed;\r\n        mapping(address => bool) hasVoted;\r\n        mapping(string => uint256) votes;\r\n        address[] candidateAddresses;\r\n        mapping(address => Candidate) candidates;\r\n    }\r\n\r\n    mapping(uint256 => Election) private elections;\r\n    mapping(address => mapping(uint256 => bool)) public tokenIssued; // token issued to voter for election\r\n    uint256 public electionCount;\r\n\r\n    event ElectionCreated(uint256 electionId, string name, string position);\r\n    event CandidateRequested(uint256 electionId, address candidate, string name);\r\n    event CandidateApproved(uint256 electionId, address candidate);\r\n    event VotingClosed(uint256 electionId);\r\n    event Voted(uint256 electionId, address indexed voter, string candidate);\r\n    event TokenIssued(uint256 electionId, address voter);\r\n\r\n    modifier onlyAdmin() {\r\n        require(msg.sender == admin, \"Only admin\");\r\n        _;\r\n    }\r\n\r\n    constructor() {\r\n        admin = msg.sender;\r\n    }\r\n\r\n    function createElection(\r\n        string memory _name,\r\n        string memory _position,\r\n        uint256 _candidateDeadline,\r\n        uint256 _startTime,\r\n        uint256 _endTime\r\n    ) external onlyAdmin {\r\n        require(_candidateDeadline < _startTime, \"Candidate deadline must be before voting starts\");\r\n        require(_startTime < _endTime, \"Invalid time range\");\r\n\r\n        electionCount++;\r\n        Election storage e = elections[electionCount];\r\n        e.name = _name;\r\n        e.position = _position;\r\n        e.candidateDeadline = _candidateDeadline;\r\n        e.startTime = _startTime;\r\n        e.endTime = _endTime;\r\n        e.exists = true;\r\n        e.votingClosed = false;\r\n\r\n        emit ElectionCreated(electionCount, _name, _position);\r\n    }\r\n\r\n    function requestCandidacy(uint256 _electionId, string memory _name) external {\r\n        Election storage e = elections[_electionId];\r\n        require(e.exists, \"Election does not exist\");\r\n        require(block.timestamp <= e.candidateDeadline, \"Candidate registration closed\");\r\n        require(bytes(e.candidates[msg.sender].name).length == 0, \"Already requested\");\r\n\r\n        e.candidates[msg.sender] = Candidate(_name, false);\r\n        e.candidateAddresses.push(msg.sender);\r\n\r\n        emit CandidateRequested(_electionId, msg.sender, _name);\r\n    }\r\n\r\n\r\n    function approveCandidate(uint256 _electionId, address _candidate) external onlyAdmin {\r\n        Election storage e = elections[_electionId];\r\n        require(e.exists, \"Election does not exist\");\r\n        require(bytes(e.candidates[_candidate].name).length > 0, \"Candidate not found\");\r\n        e.candidates[_candidate].approved = true;\r\n        emit CandidateApproved(_electionId, _candidate);\r\n    }\r\n\r\n    // function issueVoteToken(uint256 _electionId, address _voter) external onlyAdmin {\r\n    //     require(elections[_electionId].exists, \"Election does not exist\");\r\n    //     tokenIssued[_voter][_electionId] = true;\r\n    //     emit TokenIssued(_electionId, _voter);\r\n    // }\r\n\r\n    function vote(uint256 _electionId, address _candidate) external {\r\n        Election storage e = elections[_electionId];\r\n        require(e.exists, \"Election does not exist\");\r\n        // _autoCloseIfTimePassed(e, _electionId);\r\n        require(block.timestamp >= e.startTime, \"Voting not started\");\r\n        require(block.timestamp <= e.endTime, \"Voting ended\");\r\n        require(!e.votingClosed, \"Voting closed manually\");\r\n        require(!e.hasVoted[msg.sender], \"Already voted\");\r\n        require(e.candidates[_candidate].approved, \"Candidate not approved\");\r\n        e.votes[e.candidates[_candidate].name]++;\r\n        e.hasVoted[msg.sender] = true;\r\n        emit Voted(_electionId, msg.sender, e.candidates[_candidate].name);\r\n    }\r\n\r\n    function closeVoting(uint256 _electionId) external onlyAdmin {\r\n        require(elections[_electionId].exists, \"Election does not exist\");\r\n        elections[_electionId].votingClosed = true;\r\n\r\n        emit VotingClosed(_electionId);\r\n    }\r\n\r\n    function getCandidates(uint256 _electionId) external view returns (string[] memory) {\r\n        require(elections[_electionId].exists, \"Election does not exist\");\r\n        Election storage e = elections[_electionId];\r\n        uint256 count = 0;\r\n        for (uint256 i = 0; i < e.candidateAddresses.length; i++) {\r\n            if (e.candidates[e.candidateAddresses[i]].approved) {\r\n                count++;\r\n            }\r\n        }\r\n        string[] memory names = new string[](count);\r\n        uint256 idx = 0;\r\n        for (uint256 i = 0; i < e.candidateAddresses.length; i++) {\r\n            if (e.candidates[e.candidateAddresses[i]].approved) {\r\n                names[idx++] = e.candidates[e.candidateAddresses[i]].name;\r\n            }\r\n        }\r\n        return names;\r\n    }\r\n\r\n    function getVotes(uint256 _electionId, string memory _candidateName) external view returns (uint256) {\r\n        require(elections[_electionId].exists, \"Election does not exist\");\r\n        return elections[_electionId].votes[_candidateName];\r\n    }\r\n\r\n    function hasVoted(uint256 _electionId, address _voter) external view returns (bool) {\r\n        require(elections[_electionId].exists, \"Election does not exist\");\r\n        return elections[_electionId].hasVoted[_voter];\r\n    }\r\n\r\n    function getElectionDetails(uint256 _electionId) external view returns (\r\n        string memory name,\r\n        string memory position,\r\n        uint256 candidateDeadline,\r\n        uint256 startTime,\r\n        uint256 endTime,\r\n        bool votingClosed\r\n    ) {\r\n        require(elections[_electionId].exists, \"Election does not exist\");\r\n        Election storage e = elections[_electionId];\r\n        // bool isVotingClosed = e.votingClosed || block.timestamp > e.endTime;\r\n        return (e.name, e.position, e.candidateDeadline, e.startTime, e.endTime, e.votingClosed);\r\n    }\r\n\r\n    function getAllElections() external view returns (\r\n        uint256[] memory ids,\r\n        string[] memory names,\r\n        string[] memory positions,\r\n        uint256[] memory candidateDeadlines,\r\n        uint256[] memory startTimes,\r\n        uint256[] memory endTimes,\r\n        bool[] memory votingClosedFlags,\r\n        string[][] memory candidateNames,\r\n        bool[][] memory candidateApprovals,\r\n        address[][] memory candidateAddresses\r\n    ) {\r\n        uint256 total = electionCount;\r\n        uint256 validCount = 0;\r\n\r\n        // First count valid elections\r\n        for (uint256 i = 1; i <= total; i++) {\r\n            if (elections[i].exists) {\r\n                validCount++;\r\n            }\r\n        }\r\n\r\n        ids = new uint256[](validCount);\r\n        names = new string[](validCount);\r\n        positions = new string[](validCount);\r\n        candidateDeadlines = new uint256[](validCount);\r\n        startTimes = new uint256[](validCount);\r\n        endTimes = new uint256[](validCount);\r\n        votingClosedFlags = new bool[](validCount);\r\n        candidateNames = new string[][](validCount);\r\n        candidateApprovals = new bool[][](validCount);\r\n        candidateAddresses = new address[][](validCount);\r\n\r\n        uint256 idx = 0;\r\n        for (uint256 i = 1; i <= total; i++) {\r\n            Election storage e = elections[i];\r\n            if (!e.exists) continue;\r\n\r\n            ids[idx] = i;\r\n            names[idx] = e.name;\r\n            positions[idx] = e.position;\r\n            candidateDeadlines[idx] = e.candidateDeadline;\r\n            startTimes[idx] = e.startTime;\r\n            endTimes[idx] = e.endTime;\r\n            votingClosedFlags[idx] = e.votingClosed;\r\n\r\n            uint256 cLen = e.candidateAddresses.length;\r\n            string[] memory cNames = new string[](cLen);\r\n            bool[] memory cApprovals = new bool[](cLen);\r\n            address[] memory cAddrs = new address[](cLen);\r\n\r\n            for (uint256 j = 0; j < cLen; j++) {\r\n                address candAddr = e.candidateAddresses[j];\r\n                Candidate storage cand = e.candidates[candAddr];\r\n                cNames[j] = cand.name;\r\n                cApprovals[j] = cand.approved;\r\n                cAddrs[j] = candAddr;\r\n            }\r\n\r\n            candidateNames[idx] = cNames;\r\n            candidateApprovals[idx] = cApprovals;\r\n            candidateAddresses[idx] = cAddrs;\r\n\r\n            idx++;\r\n        }\r\n}\r\n\r\n}",
  "sourcePath": "C:\\Users\\MB 540WS\\newvoteveri\\VoteVeri\\BlockChain\\contracts\\ElectionManager.sol",
  "compiler": {
    "name": "solc",
    "version": "0.8.21+commit.d9974bed.Emscripten.clang"
  },
  "schemaVersion": "3.4.16",
  "updatedAt": "2025-06-21T23:43:17.985Z",
  "networkType": "ethereum",
  "devdoc": {
    "kind": "dev",
    "methods": {},
    "version": 1
  },
  "userdoc": {
    "kind": "user",
    "methods": {},
    "version": 1
  }
}